:020000040800F2
:10000000F0640020090300088B3D0008153100084A
:10001000893D0008890600084D51000800000000D5
:10002000000000000000000000000000490200087D
:10003000BD0E000800000000A5020008ED49000800
:1000400023030008230300082303000823030008F8
:1000500023030008230300082303000823030008E8
:100060002303000823030008DD0E00082303000813
:10007000E90D000823030008F50D0008230300081C
:10008000010E00080D0E00082303000825080008D3
:10009000190800082303000823030008E30E0008E2
:1000A00023030008B14A00082303000823030008C3
:1000B0002303000823030008BD4A000823030008A7
:1000C0002303000823030008230300082303000878
:1000D000230300082303000835510008415100089C
:1000E000BF0E0008230300082303000823030008B1
:1000F0002303000823030008230300082303000848
:100100002303000823030008230300082303000837
:100110002303000823030008230300082303000827
:100120002303000823030008230300082303000817
:10013000230300082303000823030008ED08000838
:10014000E108000823030008230300082303000834
:1001500023030008230300082303000823030008E7
:1001600023030008230300082303000823030008D7
:1001700023030008230300082303000800000000F5
:10018000230300082303000800F002F800F04CF8F5
:100190000AA090E8000C82448344AAF10107DA45E2
:1001A00001D100F041F8AFF2090EBAE80F0013F0E8
:1001B000010F18BFFB1A43F001031847E8AC000019
:1001C00008AD00000A4410F8014B14F00F0508BFF9
:1001D00010F8015B240908BF10F8014B6D1E05D013
:1001E00010F8013B6D1E01F8013BF9D1641E03D0EC
:1001F000641E01F8015BFBD19142E4D3704700001B
:100200000023002400250026103A28BF78C1FBD81F
:10021000520728BF30C148BF0B6070471FB50AF0B6
:100220001CFC1FBD10B510BD00F0E4F91146FFF72E
:10023000F5FF07F055FD00F002FA03B4FFF7F2FFF7
:1002400003BC00F005FA00002C4B19680868B0E800
:10025000F04F80F30988BFF36F8F4FF0000080F3F9
:10026000118870470000000008480068006880F3AB
:1002700008884FF0000080F3148862B661B6BFF3BF
:100280004F8FBFF36F8F00DF00BF00BF08ED00E0AE
:10029000DFF80C00016841F470010160704700BF95
:1002A00088ED00E0EFF30980BFF36F8F134B1A68FE
:1002B0001EF0100F08BF20ED108A20E9F04F1060EB
:1002C00009B44FF0500080F31188BFF34F8FBFF394
:1002D0006F8F09F03BF84FF0000080F3118809BCE4
:1002E00019680868B0E8F04F1EF0100F08BFB0ECB6
:1002F000108A80F30988BFF36F8F704738010020A0
:10030000EFF305807047000009488047094800471F
:10031000FEE7FEE7FEE7FEE7FEE7FEE7FEE7FEE7B5
:10032000FEE7FEE704480549054A064B7047000012
:10033000A14A000889010008F05E0020F064002056
:10034000F0600020F060002053EA020C00F06980A9
:100350002DE9F04B4FF00006002B1FBFB3FA83F5D9
:1003600003FA05F424FA05F65E4012BF1643B2FA0A
:1003700082F502FA05F4C5F120051EBF22FA05FC3C
:1003800044EA0C04203556EA044C4FEA144418BFE2
:10039000641C4FF000084FF00009904271EB030C11
:1003A00039D3002919BFB1FA81F701FA07F6B0FA7B
:1003B00080F700FA07F6C7F120071EBF20FA07FCF6
:1003C00046EA0C062037B6FBF4FCA7EB0507103F06
:1003D00007F01F0BCBF120060CFA0BFB2CFA06F6EC
:1003E00044BFB3460026202FA4BF5E464FF0000B4B
:1003F0005BEA060C08BF4FF0010B19EB0B09ABFBD6
:10040000027C48EB0608C01B06FB02CC0BFB03CCAE
:1004100071EB0C01C1E70B46024641464846BDE878
:10042000F08B13B54FF000004FF00001AFF30080E8
:10043000BDE81C407047032A40F2308010F0030CE6
:1004400000F0158011F8013BBCF1020F624498BF27
:1004500011F801CB00F8013B38BF11F8013BA2F1C4
:10046000040298BF00F801CB38BF00F8013B11F03F
:10047000030300F06280083AC0F0088051F8043BA2
:10048000083A51F804CBA0E80810F5E7121D5CBF4C
:1004900051F8043B40F8043BAFF30080D20724BF7F
:1004A00011F8013B11F801CB48BF11F8012B24BF13
:1004B00000F8013B00F801CB48BF00F8012B704762
:1004C00002F0FF0343EA032242EA024200F069B865
:1004D0004FF0000200B5134694469646203922BFDD
:1004E000A0E80C50A0E80C50B1F12001BFF4F7AF28
:1004F000090728BFA0E80C5048BF0CC05DF804EB0A
:10050000890028BF40F8042B08BF704748BF20F877
:10051000022B11F0804F18BF00F8012B7047704775
:100520007047704710B500F05DF8006810BD10B559
:10053000044600F057F8046010BD10B5203AC0F032
:100540000B80B1E81850203AA0E81850B1E81850D4
:10055000A0E81850BFF4F5AF5FEA027C24BFB1E811
:100560001850A0E8185044BF18C918C0BDE8104082
:100570005FEA827C24BF51F8043B40F8043B08BF8B
:100580007047D20728BF31F8023B48BF11F8012B52
:1005900028BF20F8023B48BF00F8012B70474FF0FE
:1005A00000020429C0F0128010F0030C3FF492AF57
:1005B000CCF1040CBCF1020F18BF00F8012BA8BF4E
:1005C00020F8022BA1EB0C01FFF784BF5FEAC17C8E
:1005D00024BF00F8012B00F8012B48BF00F8012BC5
:1005E00070470000004870478C5E0020004870474C
:1005F0008C5E00207546FFF7F9FFAE4605006946A0
:10060000534620F00700854618B020B5FFF78AFE54
:10061000BDE820404FF000064FF000074FF0000803
:100620004FF0000B21F00701AC46ACE8C009ACE884
:10063000C009ACE8C009ACE8C0098D46704710B5E8
:100640000446AFF300802046BDE81040FFF7F5BD3B
:1006500001491820ABBEFEE72600020070470000EB
:10066000034880ED0A0B80ED061B80ED022B7047DE
:10067000A8000020034880ED0C0B80ED081B80EDE6
:10068000042B7047A8000020FEE700002DE9F04F82
:10069000554C2078AA2875D1607CDD2872D10F21B5
:1006A000A01C00F081F9514908706178814269D13C
:1006B000DFF83CC1B4F90200DFF838A1ACF8000063
:1006C000B4F90450DFF830E1AAF80050B4F906306C
:1006D000DFF828B1AEF80030B4F908604849ABF84B
:1006E0000060B4F90A20DFF81C910A80B4F90C10FC
:1006F000454FA9F800105FEA004800D53843ACF830
:1007000000005FEA054C00D53D43AAF800501D04E7
:1007100000D53B43AEF80030330400D53E433848A3
:10072000ABF80060130400D53A4302800A0400D5F8
:1007300039433648A9F80010354905784FF00102D1
:10074000EE07A67B4FF000034FEAC67601D01EB13C
:1007500003E016B10A6000E00B60AE07A67B4FEA2B
:10076000867603D4002E04DA4A6002E0002E00DB15
:100770004B606E07A67B4FEA467604D4002E05DA5E
:100780008A6003E02DE0002E00DB8B60AD06A57BC8
:100790004FEA856503D4002D04DA4A6102E0002D9A
:1007A00000DB4B611B491A4D0E7805F12805F70750
:1007B000E77B4FEAC77701D01FB103E017B12A608A
:1007C00000E02B60B60704D4E37B9B0705D56A6085
:1007D00003E0E27B920700D46B60A27B0270E07BB7
:1007E0000870BDE8F08F0000CC0300205600002008
:1007F000480000204A0000204C0000204E0000204D
:1008000050000020520000200000FFFF5400002094
:10081000F013002055000020014800F0ECBC00005F
:1008200008060020014800F0E6BC00000806002091
:100830002DE9F84FDFF89CC0DDE90C95DDE90A767B
:100840004FF40074CCF8004000244FF0080ACCF8B4
:100850000840CCE9034ADFF880C04FEA10288CF842
:1008600000808CF80100080A8CF802008CF8031054
:10087000100A8CF804008CF80520180A8CF8060081
:100880008CF807306B4662461249144800F04AFB68
:10089000104840F2FF1130306B4684600160C0E9BF
:1008A000034A0D48390A1030024601704770310A78
:1008B0008170C6704FEA1921017180F80590290AEC
:1008C00081710449C5713031044800F02BFBBDE84B
:1008D000F88F0000F8020020020000200806002027
:1008E000014800F088BC000030060020014800F0FC
:1008F00082BC0000300600202DE9F84FDFF89CC0D4
:10090000DDE90C95DDE90A764FF40074CCF800407F
:1009100000244FF0080ACCF80840CCE9034ADFF87D
:1009200080C04FEA10288CF800808CF80100080A7B
:100930008CF802008CF80310100A8CF804008CF874
:100940000520180A8CF806008CF807306B466246C2
:100950001249144800F0E6FA104840F2FF11303016
:100960006B4684600160C0E9034A0D48390A1030C3
:10097000024601704770310A8170C6704FEA192132
:10098000017180F80590290A81710449C5713031DF
:10099000044800F0C7FABDE8F88F000010030020FB
:1009A0000A00002030060020034610B50120002276
:1009B00002E09C5C6040521C8A42FADB10BD0000E1
:1009C0002DE9F04105462DED0A8B01260C46B0EECF
:1009D000408AF0EE608A02270878E0B160789FEDE7
:1009E00025BB9FED26AB9FED279B4FF00308012809
:1009F00014D0022853EC192B51EC180B9FED23CB8C
:100A000014D009F0C1FD25D8667085ED00CBBDEC92
:100A10000A8BBDE8F08126704F70F8E753EC1A2B73
:100A200051EC180B09F076FC14D809E009F0ACFD84
:100A3000EAD953EC1A2B51EC180B09F06BFC04D8D3
:100A400084F8018085ED00BBE1E79FED120B85ED99
:100A5000000BDCE753EC192B51EC180B09F05AFC96
:100A6000D5D253EC1A2B51EC180B09F08DFDCED2D8
:100A70006770CCE7000000000000F0BF000000003D
:100A80000088B3C0000000000088B34000000000F0
:100A90000000F03F000000000000000070B50646B6
:100AA0002DED028B0C460878B0EE418AF0EE618A9B
:100AB000012580B11048617890ED002B012953EC9D
:100AC000122B51EC100B09D009F024FC11D86570E1
:100AD000BDEC028B70BD25704D70F9E709F054FD37
:100AE00002D802206070F3E79FED040B86ED000B47
:100AF000EEE786ED008BEBE7A80000200000000089
:100B0000000000002DED0C8B82B04FF00009DFF8E3
:100B100050A2DFF850B2DFF85082944D944F9FED11
:100B2000959B9FED968B974C9748406810B1012894
:100B30004BD05DE0BAF90000092690FBF6F009F011
:100B4000BEFB41EC1A0B88ED00ABBBF9000090FB3B
:100B5000F6F009F0B4FBC5E900018C48B0F90000DB
:100B6000404290FBF6F009F0AAFBB0EE4A0AF0EE24
:100B70006A0AC7E9000104F0E3FD53EC192B51ECBC
:100B8000100B09F0C7FB01D288ED008B95ED000B2F
:100B900004F0D6FDB0EE49AAF0EE69AA53EC1A2B88
:100BA00051EC100B09F0B6FB01D285ED008B97EDEF
:100BB000000B04F0C5FD53EC1A2B51EC100B09F09F
:100BC000A9FB15D287ED008B12E0714EB6F90E002D
:100BD00009F075FBC8E90001B6F9100009F06FFBD8
:100BE000C5E90001B6F9120009F069FBC7E9000187
:100BF0006848694A43685B1C4360166801680EB91F
:100C0000491C0160B1F5967F14DD88ED008B85ED00
:100C1000008B87ED008BDFF874C1AAF80090ABF869
:100C20000090ACF80090DFF874C140F22D11ACF8E0
:100C300000900160012E01D1C0F80090322B03D149
:100C4000C2F80090C0F80490554801F0D8F806F0BA
:100C5000CBFE544800680090534897ED002B95ED6B
:100C6000001B0FC898ED000B06F074FB4F4E84ED8F
:100C70004A8B96ED000B9FED4EAB51EC100B53ECF5
:100C80001A2B04F5A07409F081FB9FED4BBB53ECCC
:100C90001B2B09F07BFB9FED4ACB53EC1C2B09F07F
:100CA00075FB9FED49DB53EC1D2B09F045F9C4E9B9
:100CB000060196ED020B53EC1A2B51EC100B09F0C8
:100CC00065FB53EC1B2B09F061FB53EC1C2B09F06B
:100CD0005DFB53EC1D2B09F02FF9C4E9120196EDD1
:100CE000040B53EC1A2B51EC100B09F04FFB53EC97
:100CF0001B2B09F04BFB53EC1C2B09F047FB53EC6F
:100D00001D2B09F019F9C4E91E0196ED060B53ECF1
:100D10001A2B51EC100B09F039FB53EC1B2B09F08B
:100D200035FB53EC1C2B09F031FB53EC1D2B09F068
:100D300003F9C4E92A019FED260B84ED369B84ED6F
:100D4000420B9FED250B012084ED4E0B9FED240BF4
:100D500084ED5A0BA4F5A07407F0DEF8E4E6000079
:100D60004C0000204E0000203800002040000020F1
:100D7000280000200000000000408F40000000001C
:100D800000000000700F0020181400204800002010
:100D9000DE03002078040020BC0300204A0000206D
:100DA0005806002058000020F403002038040020DA
:100DB00000000000000042400000000000FFBF40B3
:100DC00000000000008047400000000000E8B7403D
:100DD0000000000000409F40000000000070A7409D
:100DE000000000000040AF40014800F015BD0000C9
:100DF000D4080020014800F00FBD00003409002095
:100E0000014800F009BD000014080020014800F06E
:100E100003BD00007408002001681823CAB2103A0C
:100E2000B2FBF3F2054B6FF30901032A9B5CC36528
:100E300000D9091D816508467047000008AC00080C
:100E400010B5014600208B698A6A4FF0C07453B117
:100E5000B3F5005F15D072B1012A0CD0022A0AD076
:100E6000032A09D104E01AB1012A06D0022A03D1CB
:100E7000C96AC90100D5012010BDC96AA142FAD0D2
:100E800010BD002AF7D0012AF2D0022AF3D0032A9B
:100E9000F3D010BD30B50468256825F480252560A1
:100EA000046863608368402B036803D0996000681E
:100EB000C26030BD9A600068C16030BD704710B537
:100EC0004FF4806000F064FE4FF4006000F060FEBC
:100ED000BDE810404FF4805000F05ABE102000F0E2
:100EE00057BE10B5202000F053FE402000F050FE09
:100EF000BDE810404FF4807000F04ABE72B6FEE7C5
:100F000090F82020012A07D0022A05D0416A41F436
:100F10008021416201207047006842690A434261B2
:100F200000207047F0B590F820500468A468012DA7
:100F300005D0022D03D0416A41F4802157E014F01E
:100F4000406F01D1E5004FD5C4F301640125A540F0
:100F50001D608D684FF4C0739DB1CE6835434E68F7
:100F600045EAC605066803EB0417F5514FF4C27550
:100F7000076805EB04150E697E51097D012905D02E
:100F800009E00E88CD6845EA4655EBE701684E5901
:100F900046F480764E511179D579567941EA05614A
:100FA00095792D0445EA062529434FF4C676056850
:100FB00006EB0416A9511178D57841EA05619578B8
:100FC00052782D0445EA022211434FF4C475026899
:100FD00005EB04155151006803EB0411425842F02F
:100FE000010242500020F0BD416A41F4001141620B
:100FF0000120F0BD10B590F82020012A07D0022A68
:1010000005D0416A41F480214162012010BD3B4876
:10101000D0F8002242F00102C0F80022D0F80022ED
:1010200022F47C52C0F80022D0F800224B6A42EA37
:101030000322C0F800220A7D02F01F0301229A4019
:10104000D0F81C329343C0F81C32CB69B3B9D0F846
:101050000C329343C0F80C328C894B6864F31F4305
:101060004C6900EBC404C4F840320C890B6864F38B
:101070001F434C6900EBC404C4F84432CB69012B14
:1010800016D1D0F80C321343C0F80C320C884B68E0
:1010900064F31F434C6900EBC404C4F840320C896C
:1010A000CB6864F31F434C6900EBC404C4F84432BA
:1010B0008B69002BD0F804320ED01343C0F80432F1
:1010C0000B69002BD0F8143208D01343C0F8143247
:1010D000096A012904D008E09343EFE79343F5E759
:1010E000D0F81C121143C0F81C12D0F8001221F0E5
:1010F0000101C0F80012002010BD00000064004093
:10110000704770B590F82040012C05D0022C03D018
:10111000416A41F4802128E0046809B32469A407E6
:1011200020D04FF4D874056804EB01142D5915F044
:101130000405956005682D591AD0ED0855600568BD
:101140002C5904F00204D4604FF4DA74056804EBFF
:1011500001142E5906F00F06082E0CD308250DE0B9
:10116000E468DCE7416A41F400114162012070BD8E
:101170006D0D1560E3E72D5905F00F051561056844
:101180002D59C5F30725956105682C59240C546128
:101190004FF4DC72046802EB0112A4581C7004685E
:1011A000A458240A5C700468A458240C9C70046839
:1011B000A258120EDA704FF4DE72046802EB0112CC
:1011C000A4581C710468A458240A5C710468A458CB
:1011D000240C9C710468A258120EDA71006829B1BF
:1011E000016941F020010161002070BDC16841F03A
:1011F0002001C160F8E72DE9F05F05460068002492
:101200004669D0F804908768D0F80CB0D0F810A0E8
:10121000D0F81880F10748D0F90714D00121816077
:10122000B80703D5284600F096FA0CE0780702D5F7
:101230004FF4006407E0380702D54FF4805402E011
:10124000284600F087FAF80516D529684FF4807013
:101250008860B80503D5284600F07FFA0CE07805D1
:1012600002D544F4005407E0380502D544F4804424
:1012700002E0284600F070FAF80316D529684FF40A
:1012800080308860B80303D5284600F068FA0CE087
:10129000780302D544F4004407E0380302D544F44F
:1012A000803402E0284600F059FA300707D55FEA9B
:1012B000CB6004D52968102044F40074C86070071E
:1012C0004FF0080707D55FEA0B7004D52868C760A0
:1012D000284600F0A9F9B00706D52868C06880073D
:1012E00002D0284600F0A2F9700607D55FEACA606E
:1012F00004D52968102044F480640861B00607D53D
:101300005FEA0A7004D528680761284600F0F2F900
:10131000F00606D528680069800702D0284600F04C
:10132000EAF9B00308D55FEAC96005D5296810203D
:101330004860284600F0E0F9F00307D55FEA09703D
:1013400004D528684760284600F00AFA300446D5DC
:101350005FEA497040D5F00504D55FEAC87001D056
:1013600044F00104B00504D55FEA887001D544F06B
:101370000204700504D55FEA487001D544F0040406
:10138000300529D518F0700F26D008F070004028DD
:1013900015D006DC102809D020280AD0302816D114
:1013A0000AE050280ED0602811D10EE044F0080465
:1013B0000DE044F010040AE044F0200407E044F09B
:1013C000400404E044F0800401E044F480742868A0
:1013D000816921F070018161296804204860002C36
:1013E00005D0686A204368622846FFF789FEBDE899
:1013F000F09F70B5040003D094F8200010B104E011
:10140000012070BD204600F081F82068016841F09D
:101410000101016000F0C0FC0546052604E000F073
:10142000BBFC401B0A2811D820684068C007F6D0D2
:101430002068016821F00201016000F0ADFC054662
:101440000BE000F0A9FC401B0A2806D9606A40F4B2
:101450000030606284F82060D2E72068406880072E
:10146000EFD4207E0128206801683DD021F0800162
:101470000160607E01282068016838D021F04001B9
:101480000160A07E01282068016833D021F020018E
:101490000160E07E0128206801682ED041F0100133
:1014A0000160207F01282068016829D021F008010F
:1014B0000160607F01282068016824D021F00401C8
:1014C0000160D4E902010843D4E90412114308433E
:1014D0006168491E08432168C861002060620120DC
:1014E00084F82000002070BD41F08001C0E741F089
:1014F0004001C5E741F02001CAE721F01001CFE724
:1015000041F00801D4E741F00401D9E7F0B587B014
:10151000044614216846FEF7DBFF3E4B3E48DFF8E9
:10152000F0E01968D4F800C03B4A032502260927D9
:1015300010300024491CF4452AD11960012907D133
:10154000016841F000710160006800F000700590D2
:10155000106840F0080010601068CDE9005600F0F7
:101560000800CDE9047069462C48CDE9024500F039
:101570001BFB00220721132000F0E0FC132000F0E9
:10158000CFFC00220721142000F0D8FC14203AE000
:10159000DFF88CE0F44538D1D0F800C04CF0806C16
:1015A000C0F800C0D0F800C001290CF0806CCDF864
:1015B00014C0196007D1016841F000710160006832
:1015C00000F000700590106840F002001060106894
:1015D00002AB00F0020005906020CDE9000683E830
:1015E000B00069460F4800F0DFFA002205213F20D5
:1015F00000F0A4FC3F2000F093FC002205214020D5
:1016000000F09CFC402000F08BFC07B0F0BD000017
:10161000006400408000002030380240000C02408E
:1016200000680040000402407047000030B50546E5
:101630002C482D4C8BB0854226D101AB03AA00214A
:101640002846FFF75EFD0398A0F20120072817D86F
:10165000C0B22649207001EB001001880181BDF85D
:10166000041049BA0180BDF8061049BA4180BDF89E
:10167000081049BA81809DF80A10817105F056FE64
:1016800002211848FFF73CFC1948854227D102ABDC
:1016900004AA00212846FFF734FD0498A0F2012097
:1016A000072818D81149C0B26070803101EB0010D2
:1016B00001880181BDF8081049BA0180BDF80A10FF
:1016C00049BA4180BDF80C1049BA81809DF80E10CE
:1016D000817105F02BFE02210548FFF711FC0BB0CC
:1016E00030BD00000806002000000020B8010020E6
:1016F00030060020704770477047000070B5044600
:1017000090F82000012804D0606A40F40020606254
:1017100018E0022084F820002068016821F001010F
:10172000016000F039FB05460EE000BF00F034FB1D
:10173000401B0A2808D9606A40F400306062052026
:1017400084F82000012070BD20684068C007EDD1FA
:10175000606270BD70477047704770477047704750
:1017600070472DE9F0410446876D00F015FB0646F1
:1017700094F835000025022806D08020606584F8A2
:1017800034500120BDE8F0812068016821F0160185
:1017900001602068416921F080014161206C08B935
:1017A000A06C20B12068016821F008010160206868
:1017B000016821F0010101600CE000F0EDFA801BEE
:1017C000052807D920206065032084F8350084F8B7
:1017D0003450D7E720680068C007EED194F85C1059
:1017E0003F208840B860012084F8350084F83450E8
:1017F0000020C7E790F83510022903D08021416509
:1018000001207047052180F835100068016821F03B
:1018100001010160002070472DE9F84304464FF0B4
:101820000009CDF8009063484FF41651A56D00688B
:10183000B0FBF1F72E6894F85C10082000FA01F173
:1018400031420FD021680A6852070BD50A6822F08E
:1018500004020A6094F85C108840A860606D40F053
:101860000100606594F85C104FF0010808FA01F07F
:10187000304208D021684969090604D5A860606D26
:1018800040F00200606594F85C100420884030420B
:1018900008D021680968890704D5A860606D40F008
:1018A0000400606594F85C1010208840304218D025
:1018B00021680968090714D5A860206801684903F0
:1018C00004D50068000308D5A16C07E00168C905CC
:1018D00003D4016821F008010160216C09B12046A0
:1018E000884794F85C1020208840304231D021682D
:1018F0000968C9062DD5A86094F835000528206828
:10190000016806D0490347D5006800031DD4616C07
:101910001CE021F0160101602068416921F080017E
:101920004161206C08B9A06C20B12068016821F0E9
:101930000801016094F85C103F208840A86084F89A
:10194000358084F83490216D1FE0E16B09B12046A9
:101950008847606D00282BD0606DC00714D005202B
:1019600084F835002068016821F0010101600098C9
:10197000401C0090B84203D820680068C007F6D128
:1019800084F8358084F83490E16C002910D001B0DF
:101990002046BDE8F04308470168C905D5D4016871
:1019A00021F01001016084F8358084F83490CCE790
:1019B000BDE8F883900000202DE9F041044600F0D6
:1019C000EBF906465CB1022084F83500002584F866
:1019D00034502068016821F0010101600DE0012010
:1019E000BDE8F08100F0D8F9801B052805D920203A
:1019F0006065032084F83500F2E720680068C007BE
:101A0000F0D12268116820480140D4E9010318434D
:101A1000D4E903363343184363691843A369184371
:101A2000E3691843236A18430843616A042903D110
:101A3000D4E90B1319430843106020684069666AB3
:101A400020F0070130460E43012704280CD1A06A7C
:101A50000643E06A40B12046FFF7F2F920B140208A
:101A6000606584F83570BAE7206846612046FFF764
:101A7000D3F994F85C203F2191408160656584F83A
:101A800035700020ACE700003F8010F02DE9F041F8
:101A90000446866D90F83400002501280DD0012001
:101AA00084F8340094F835700020012F07D084F8B2
:101AB000340002252846BDE8F0810220FBE702271A
:101AC00084F8357060652046FFF7E4F994F85C10FF
:101AD0003F208840B0602068016841F01601016035
:101AE000206C20B12068016841F008010160206885
:101AF000016841F001010160DCE7000070B5214997
:101B0000214C012541F28836B0F5805F13D0B0F545
:101B1000806F19D0402820D0B0F5807F26D01B4997
:101B2000B0F5006F2BD020282BD14D603046BDE89A
:101B3000704005F03FBF91ED060B51EC100B08F023
:101B40008FFB25612060F1E791ED160B51EC100B36
:101B500008F086FB65616060E8E791ED260B51ECCB
:101B6000100B08F07DFBA561A060DFE791ED360B5F
:101B700051EC100B08F074FBE561E060D6E70D60F6
:101B8000D4E770BDE009002058040020281400208C
:101B9000044910B50A68024202D00860FFF7AEFFA0
:101BA00010BD0000143C01402DE9F84FDFF8BCA146
:101BB0000022012503264FF00F090AF1040BAAF1B8
:101BC000040E00BF0B6805FA02F42340A34270D153
:101BD0000F7907F00307012F01D0022F16D1876874
:101BE0004FEA420806FA08FC27EA0C07D1F80CC0B5
:101BF0000CFA08FC4CEA070CC0F808C04768A74379
:101C00000C79C4F3001494403C4344600C79E443E1
:101C1000A4070AD0C4684FEA420C06FA0CF7BC438A
:101C20008F6807FA0CF72743C7600C7904F00304A8
:101C3000022C12D1D40800EB840CDCF820405707AA
:101C4000FF0E09FA07F824EA0804D1F8108008FA10
:101C500007F848EA0408CCF8208004684FEA420CF0
:101C600006FA0CF7BC430F7907F0030707FA0CF7E5
:101C7000274307604C6814F4403F70D03C4C276801
:101C800047F480472760246822F0030704F4804467
:101C90000094384C07EB040CDCF8084897074FEA2F
:101CA000177809FA08F7BC43334FB84202D100272E
:101CB00024E054E0314FB84201D101271EE0304FFB
:101CC000B84201D1022719E02E4FB84201D10327B3
:101CD00014E02D4FB84201D104270FE02B4FB8423A
:101CE00001D105270AE02A4FB84201D1062705E0B5
:101CF000284FB84201D1072700E0082707FA08F764
:101D00002743CCF80878DAF800405746D1F804C0E9
:101D10009C435FEACC2C00D51C433C60DBF80040C0
:101D20005F46D1F804C09C435FEA8C2C00D51C436D
:101D30003C60DEF800407746D1F804C09C435FEA7F
:101D40008C3C00D51C433C60084F083F3C68D1F8F0
:101D500004C09C435FEACC3C00D51C433C60521C51
:101D6000102AFFF42FAFBDE8F88F0000083C0140B7
:101D700044380240003001400000024000040240AC
:101D800000080240000C0240001002400014024013
:101D900000180240001C02400148806870470000A3
:101DA0008400002070B5040011D021684CF6CC40AE
:101DB0000860216845F255500860D4E9000141608F
:101DC0002168A0688860FFF7E7FF05460DE0012065
:101DD00070BD00BFFFF7E0FF401B312805D9206828
:101DE000C068800701D0032070BD2068C0688007EC
:101DF000F0D121684AF6AA200860002070BD006872
:101E00004AF6AA210160002070470000024881685C
:101E10000278114481607047840000200B4810B59F
:101E2000016841F400710160016841F48061016062
:101E3000016841F480710160032000F09FF80F20D9
:101E400000F006F800F050F8002010BD003C024001
:101E500030B505461F4887B00024016841F00401F1
:101E60000160006806A900F00400009001A800F0DD
:101E700031F90498A8B100F053F940001649174A07
:101E8000B0FBF1F11648491E026040F2E732C0E9AA
:101E90000324C0E90114846100F092FB040003D024
:101EA00015E000F03DF9E9E70D4800F0D5FB04002E
:101EB0000DD11E2000F034F8102D07D20022294643
:101EC0001E2000F03BF80748056000E0012407B041
:101ED000204630BD4038024040420F00000800401C
:101EE00094090020880000200C4882B0016841F469
:101EF00080410160006800F4804000900748001FA6
:101F0000016841F0805101600068002200F08050BB
:101F100000900F21901E02B000F010B8443802402B
:101F2000002809DB00F01F020121914040098000D8
:101F300000F1E020C0F8001170470000F0B40E4B33
:101F40001B680C46C3F30223C3F10705042D00D917
:101F50000425191D072901D2002300E0DB1E0126FC
:101F600006FA05F1491E214099409E40761E164012
:101F70003143F0BC03F003B90CED00E0064900F07A
:101F8000070208684FF6FF03184040EA0220034AA0
:101F900010430860704700000CED00E00000FA05F7
:101FA0002DE9F0470E46050065D0DFF81481D8F81A
:101FB0000000F7B200F00700B04207D288F80070C6
:101FC000D8F8000000F00700B04254D128683D4C1A
:101FD000810712D5400703D5206840F4E050206007
:101FE0002878000703D5206840F46040206020680E
:101FF000A96820F0F000084320602878C0072DD0A1
:10200000304968680839012812D0022813D0032803
:1020100011D00968890700292DDA216821F0030110
:1020200001432160FFF7B8FE814641F2883A0EE095
:1020300009688903EFE709688901ECE7FFF7ACFE5F
:10204000A0EB0901514502D90320BDE8F0872068C3
:10205000696800F00C00B0EB810FEFD1D8F80010E8
:10206000404601F00701B14207D90770006800F04F
:102070000700B04201D00120E7E72878400705D5E6
:102080002068E96820F4E0500843206028780007C1
:1020900006D52068296920F4604040EAC10020602C
:1020A00000F05EF82168084AC1F30311515CC84092
:1020B0000649086006480068FFF7CAFE0020C4E72A
:1020C000003C02400838024010AC0008900000209C
:1020D000880000200F2202600C4A136803F00303FB
:1020E0004360136803F0F0038360136803F4E05364
:1020F000C36012684FF4E05303EAD202026104485D
:10210000006800F0070008607047000008380240CF
:10211000003C024001480068704700009000002029
:102120000448054900680968044AC1F38221515CEA
:10213000C8407047900000200838024020AC0008DA
:102140000448054900680968044AC1F34231515CFA
:10215000C8407047900000200838024020AC0008BA
:10216000154810B5006810F00C02144813D0411047
:10217000042A0FD0082A0ED10F4C241F226823688E
:1021800002F03F025B0207D52068C0F38810A0FB75
:10219000010106E0084610BD2168C1F38811A1FBCA
:1021A00000010023FEF7D0F82168C1F30141491C6A
:1021B0004900B0FBF1F010BD083802400024F400E3
:1021C0002DE9F84F04006ED02078DFF84C93C0075B
:1021D000A9F104054AD009F104000168C1F38101A5
:1021E000012908D00068C0F3810002280AD1D9F87B
:1021F0000000400206D52868800337D560680028B3
:10220000E1D033E06068B0F5803F10D0B0F5A02F8A
:10221000286810D020F480302860286820F48020BE
:1022200028606068A8B1FFF7B7FD06460DE0286892
:1022300040F48030F4E740F480202860F7E700BFE6
:10224000FFF7AAFD801B642873D828688003F7D5A0
:102250000CE0FFF7A1FD064605E000BFFFF79CFD7F
:10226000801B6428F0D828688003F7D42078DFF832
:10227000AC8280074FF0000A3ED5A748001D0168D8
:1022800011F00C0F08D00068C0F3810002280BD1B8
:10229000D9F80000400207D42868800716D5E06806
:1022A000012800D112E033E1E068B8B10120C8F89C
:1022B0000000FFF771FD064605E000BFFFF76CFD6B
:1022C000801B0228C0D828688007F7D528682169B4
:1022D00020F0F80040EAC10028600DE0C8F800A036
:1022E000FFF75AFD064604E0FFF756FD801B022863
:1022F0001FD828688007F7D42078000722D5864F9A
:1023000087486169703771B101210160FFF744FDB1
:10231000064604E0FFF740FD801B022809D8386814
:102320008007F7D50EE0C0F800A0FFF735FD0646A0
:1023300005E082E0FFF730FD801B02287DD8386879
:102340008007F7D42078400768D5DFF8CCB10027A4
:102350000BF13C0BDBF80000C0000BD4DBF80010E5
:1023600041F08051CBF80010DBF80000012700F0AD
:10237000805000906B4E3068C00510D4306840F437
:1023800080703060FFF708FD009005E0FFF704FD66
:102390000099401A022850D83068C005F6D55E4E24
:1023A000A0686C3601280FD00528306810D020F0C6
:1023B00001003060306820F004003060A068B8B1DF
:1023C000FFF7EAFC00900FE0306840F00100F4E70E
:1023D00040F004003060F7E7FFF7DEFC0099411A97
:1023E00041F28830814266D830688007F4D50EE02B
:1023F000FFF7D2FC009007E0FFF7CEFC0099411AEE
:1024000041F28830814256D830688007F4D42FB129
:10241000DBF8001021F08051CBF80010A069C8B3A0
:102420003D49091D0968C1F3810102294AD00228EA
:10243000504607D0C8F8600000E03CE0FFF7ACFC75
:1024400004463BE04746C8F86000FFF7A5FC064697
:1024500005E000BFFFF7A0FC801B02282BD82868EE
:102460008001F7D4D4E907010843A16A2E4A49083C
:1024700002EB0141626A41EA8211084394F82C1090
:1024800040EA0161C9F8001001203866FFF784FCBA
:10249000044606E03EE000BFFFF77EFC001B02287A
:1024A00009D828688001F7D534E000BFFFF774FC35
:1024B000001B022802D90320BDE8F88F286880019C
:1024C000F4D427E00128F7D0D9F80000E26900F43D
:1024D000800191421CD1226A00F03F01914217D144
:1024E00047F6C071626A0140B1EB821F10D1A26A47
:1024F0004FF0FF3300F4403103EB5202B1EB024FD7
:1025000006D194F82C1000F07060B0EB016F01D090
:102510000120D1E70020CFE7043802400000474205
:10252000800E4742007000400000FFFF7047704778
:1025300070B590F83C20012A32D0012480F83C404C
:10254000022280F83D2003685A689D6822F07006D8
:102550000A6832435A60134B02689A4214D0B2F1AF
:10256000804F11D0104B9A420ED0104B9A420BD094
:102570000F4B9A4208D00F4B9A4205D00E4B9A420D
:1025800002D00E4B9A4204D1496825F080031943CA
:10259000916080F83D40002180F83C10084670BDF5
:1025A000022070BD0000014000040040000800400F
:1025B000000C0040000401400040014000180040B1
:1025C00010B5040003D094F83D0010B107E00120DD
:1025D00010BD002084F83C00204600F01FF80220C7
:1025E00084F83D00211D206802F06EFA012084F875
:1025F000460084F83E0084F83F0084F8400084F8E8
:10260000410084F8420084F8430084F8440084F8D0
:10261000450084F83D00002010BD000008B50068AA
:102620000B49884212D10B48016841F40031016026
:102630000068002200F40030009006211920FFF706
:102640007DFCBDE808401920FFF76ABC08BD00000A
:10265000004401404438024090F83D10012901D067
:1026600001207047022180F83D100168CA6842F0DD
:102670000102CA6000681149884214D0B0F1804F4D
:1026800011D00F4988420ED00E4988420BD00E4916
:10269000884208D00D49884205D00D49884202D0B1
:1026A0000C49884204D1816801F00701062903D052
:1026B000016841F001010160002070470000014005
:1026C0000004004000080040000C004000040140ED
:1026D000004001400018004070472DE9F0410446D9
:1026E0000068C66805694FF00007A90713D5B10750
:1026F00011D5F91E016101202077206880698007CB
:10270000204602D0FFF7E8FF04E000F0D3F82046AF
:1027100000F090F92777680716D5700714D521685F
:102720006FF004000861022020772068806910F4AF
:10273000407F204602D0FFF7CFFF04E000F0BAF858
:10274000204600F077F92777280715D5300713D5ED
:1027500021686FF008000861042020772068C069B4
:102760008007204602D0FFF7B7FF04E000F0A2F890
:10277000204600F05FF92777E80616D5F00614D555
:1027800021686FF010000861082020772068C06978
:1027900010F4407F204602D0FFF79EFF04E000F0D7
:1027A00089F8204600F046F92777E80708D0F007B7
:1027B00006D021686FF001000861204600F0A0F902
:1027C000280608D5300606D521686FF0800008611C
:1027D0002046FFF7ABFE680608D5700606D52168CF
:1027E0006FF040000861204600F0A6F9A8060AD55F
:1027F000B00608D521686FF0200008612046BDE8CA
:10280000F041FFF794BEBDE8F081000030B587B01D
:10281000044614216846FDF75BFE24680022204927
:1028200002232048B4F1804F16D01F4DAC4224D172
:10283000086840F00200086008680093CDE90132A2
:1028400000F00200CDE9043018486946039200BF49
:10285000FFF7AAF907B030BD0C6844F001040C6022
:10286000096801F00101059103210091CDE90132D0
:102870000121CDE903216946EAE70D4DAC42E9D1DA
:102880000C6844F001040C60096801F00101059135
:1028900004210091CDE901326946CDE90323D7E750
:1028A00030380240000002400004004000040240B2
:1028B000000C0040704770B5044690F83C000026BC
:1028C0000D4601280FD0012084F83C006AB1042A8B
:1028D0001DD0082A2FD00C2A3FD00126002084F8D2
:1028E0003C00304670BD022070BD206802F066F9E1
:1028F0002068816941F0080181612068816921F0C7
:1029000004018161206881692A69114311E020680E
:1029100002F084F92068816941F4006181612068D6
:10292000816921F480618161206881692A6941EAB5
:1029300002218161D2E7206802F0A6F92068C1690E
:1029400041F00801C1612068C16921F00401C16141
:102950002068C1692A69114311E0206802F0C8F9B2
:102960002068C16941F40061C1612068C16921F436
:102970008061C1612068C1692A6941EA0221C1619F
:10298000ACE710B5040003D094F83D0010B107E0A7
:10299000012010BD002084F83C00204600F01EF805
:1029A000022084F83D00211D206802F08DF80120EE
:1029B00084F8460084F83E0084F83F0084F8400024
:1029C00084F8410084F8420084F8430084F844000D
:1029D00084F8450084F83D00002010BD08B501686A
:1029E0001148B1F1804F0BD0104A914210D10168CB
:1029F00041F002010160006800F00200009008BD93
:102A0000016841F001010160006800F00100F5E794
:102A1000074A9142F3D1016841F008010160006862
:102A200000F00800EAE700004038024000040040DF
:102A3000000C00407047000010B50446022249B166
:102A400004290ED0082913D094F84100012816D08B
:102A5000012010BD94F83E000128F9D184F83E20F1
:102A60000FE094F83F000128F2D184F83F2008E0FD
:102A700094F840000128EBD184F8402001E084F86C
:102A800041200122206802F08BF816492068164A7E
:102A9000884201D0904203D1436C43F40043436425
:102AA0002068884213D0B0F1804F10D00F4988427F
:102AB0000DD00F4988420AD00E49884207D0904273
:102AC00005D00D49884202D00C49884204D1816862
:102AD00001F00701062903D0016841F001010160FE
:102AE000002010BD0000014000040140000400402F
:102AF00000080040000C0040004001400018004069
:102B000010B504460A48844209D101F03FF904F0A7
:102B100033F905F0C1FA05F0CBF905F0DFF9054905
:102B20002068884203D1BDE81040FFF76FB910BD9F
:102B30003C070020000800407047704710B504466D
:102B400000680C49884207D101220B490B4800F06C
:102B500053FA0B49002008700A492068884207D1BF
:102B600007490122BDE81040491C074800F044BA5B
:102B700010BD000000480040CC030020CC0700201E
:102B8000220000200044004084070020F8B50168BE
:102B900004460868CA684B6910F00F0F4FF0000533
:102BA00059D003F0010602F49077374365D0C1078E
:102BB00005D0D10503D5616C41F001016164410785
:102BC00005D5D90703D0616C41F00201616481072A
:102BD00005D5D90703D0616C41F004016164010798
:102BE00007D502F02001314303D0616C41F00801A8
:102BF0006164616C00293AD0800604D5900602D544
:102C0000204602F067F920684069616CC0F38010CB
:102C1000090700D460B3204602F027F92068406914
:102C2000400621D52068143050E8001F21F04001F3
:102C300040E80012002AF5D1E06BA8B16E490165A9
:102C4000E06BFEF7D7FD002811D0E06B016D01B0FD
:102C5000BDE8F040084783060FD593060DD5204602
:102C6000BDE8F84002F036B92046FFF767FFF8BD2F
:102C70002046FFF763FF6564F8BD266B2023012E15
:102C80007DD1C6067BD5D60679D508684868009000
:102C900048694FF00206400641D5E16B086840687C
:102CA0000004000CE8D0A28D8242E5D9E085C86915
:102CB000B0F5807F2DD020680C3050E8001F21F443
:102CC000807140E80012002AF5D12068143050E8E5
:102CD000001F21F0010140E80012002AF5D1206810
:102CE000143050E8001F21F0400140E80012002A93
:102CF000F5D184F84230256320680C3050E8001F7D
:102D000021F0100140E80012002AF5D1E06BFEF737
:102D100028FD6663A08DE18D401A81B22AE0A08D66
:102D2000E18D401A81B2E08D0028A5D00029A3D002
:102D300022680C3252E8000F20F4907042E800073D
:102D4000002FF5D12068143050E8002F22F0010246
:102D500040E80027002FF5D184F842302563206831
:102D60000C3050E8002F22F0100240E80023002B26
:102D7000F5D166632046FFF7E0FEF8BDFFE70506E4
:102D80002BD5150629D594F841002128F5D1A06846
:102D9000B0F5805F01D12069B0B1206A411C216289
:102DA000216800784860E08C401E0004000CE0843C
:102DB000E3D12068C16821F08001C1602068C1684A
:102DC00041F04001C160D8E7206A0088C0F30800E4
:102DD0004860206A801C2062E5E74006CDD5500699
:102DE000CBD5CA68204622F04002CA6084F8413040
:102DF00000F08FF9C1E700006D4D000870B50400C8
:102E000004D094F84100002510B106E0012070BD07
:102E100084F84050204600F023F8242084F8410034
:102E20002068C16821F40051C160204602F0B4F866
:102E30002068016921F4904101612068416921F015
:102E40002A0141612068C16841F40051C160656494
:102E5000202084F8410084F842006563002070BDA2
:102E60002DE9F04786B0044614216846FDF730FB93
:102E70005A485A49DFF86081D4F800C0103902225C
:102E800003230727002546054FF0400A4FF48069C9
:102E9000C4454BD1D0F800C04CF4003CC0F800C091
:102EA000006800F400300590086840F008000860F1
:102EB0000868694600F00800059060208DE825004C
:102EC000CDE903374648FEF76FFE474F4548C846F1
:102ED0003860C7E90165C7E903597D61BD61FD61DE
:102EE0003D6238467D62FEF767FD08B1FEF706F8E1
:102EF000E763BC633C4F3B4860371830C7E9035871
:102F00007D61BD61FD613D627D6287E841043846B7
:102F1000FEF752FD08B1FDF7F1FFA763002205217E
:102F20002620BC63FFF70AF8262050E0DFF8BC80BB
:102F3000C4454ED1D0F800C04CF4802CC0F800C07D
:102F4000006800F480200590086840F002000860E6
:102F50000868694600F0020005904FF440608DE873
:102F60002500CDE903372248FEF71EFE1E4F1D48FF
:102F7000C03760383860C7E90165C7E903597D612A
:102F8000BD61FD613D62C84638467D62FEF714FDB5
:102F900008B1FDF7B3FFE763BC63164F1148C7E9FB
:102FA00003587D61BD61FD613D6230387D6287E817
:102FB00041043846FEF700FD08B1FDF79FFFA76307
:102FC000002205212720BC63FEF7B8FF2720FEF76B
:102FD000A7FF06B0BDE8F08700440040403802403B
:102FE000000C0240886002401408002000480040A5
:102FF000000402403409002090F84230202B01D018
:103000000220704721B11AB10023036302F04AB8CD
:10301000012070472DE9F047074600683649012531
:10302000DFF8D8800026364C88422BD108F11009F1
:1030300099F80000AA2813D1207870B9C8F8005078
:10304000FDF724FB112209F101012E48FFF7D4FFFF
:10305000257099F80000AA2802D12078012807D00D
:103060002649012210312748FFF7C6FF267009E0E4
:10307000C8F80050FDF70AFB204912221031214800
:10308000FFF7BAFF20493868884228D11C481B4FF7
:10309000401C643F01786088395450B939780F2951
:1030A00007D0BDE8F04716490122491C1748FFF731
:1030B000A3BF401C124960800122491C1348FFF73E
:1030C0009BFF6088642800D9668038780F2802D179
:1030D000787BAA2805D060880E2800D16680BDE8DC
:1030E000F08760880E28FAD101F0E0F8C8F80450A3
:1030F00000F0FAFEF2E7000000480040BC030020A8
:1031000022000020CC07002000440040840700205B
:1031100070477047FEE7000070B50C462DED0A8B36
:10312000054653EC112B51EC100B374E9FED37BB7E
:103130009FED38CB07F05EFA41EC190B96ED100BC2
:1031400053EC192B51EC100B07F020F994ED001BF8
:1031500053EC112B07F026FB9FED301B53EC112B8A
:1031600007F014F996ED180B41EC1A0B53EC192BE0
:1031700051EC100B07F00AF994ED021B53EC112BE4
:1031800006F01EFE53EC1A2B06F01AFE41EC180B4B
:1031900053EC1B2B07F0F8F902D285ED00BB0BE0D6
:1031A00053EC1C2B51EC180B07F0B4F802D285ED50
:1031B00000CB01E085ED008B9FED1A8B51EC1A0BD3
:1031C00053EC182B07F0E2F894ED001B53EC112B95
:1031D00006F0F6FDC4E9000196ED140B53EC192B33
:1031E00051EC100B07F0D2F853EC182B07F0CEF887
:1031F00094ED021B53EC112B06F0E2FDC4E9020131
:10320000BDEC0A8B70BD0000A8000020000000008B
:103210000000D040000000000000D0C0000000000E
:1032200000005940FCA9F1D24D62503FF7B5144659
:103230002DED0A0B0F4606462DED108B82B0B0EE39
:1032400044DAF0EE64DAB0EE42EAF0EE62EAB0EEB2
:10325000418AF0EE618AB0EE40FAF0EE60FA9FED3E
:103260009ECB9FED9FABA04D9FEDA00B51EC1D0B96
:1032700053EC102B07F08AF853EC1E2B06F0A0FD40
:1032800053EC182B07F0B6F941EC180BB0EE480AD6
:10329000F0EE680A02F054FAB0EE409AF0EE609A4E
:1032A00095ED000B51EC190B53EC102B07F032F895
:1032B00003D8B0EE4A8AF0EE6A8A95ED100B53EC13
:1032C000182B51EC100B07F061F894ED061B53EC32
:1032D000112B07F067FA53EC1C2B07F057F895ED0C
:1032E000000B41EC1B0B53EC102B51EC190B07F0AE
:1032F0004BF93AD295ED180B53EC182B51EC100BFF
:1033000007F044F894ED041B53EC112B06F058FD24
:1033100053EC1B2B06F054FD41EC100B8DED000B14
:103320009FED749B53EC192B07F02EF90AD39FEDF8
:10333000739B9DED000B53EC192B51EC100B06F019
:10334000E9FF01D28DED009B95ED1A0B9DED001B61
:1033500051EC100B53EC112B07F018F853EC1F2B0A
:1033600007F020FA41EC190B03E0B0EE4A9AF0EEB8
:103370006A9A95ED040B53EC192B51EC100B07F0E6
:1033800005F894ED081B53EC112B07F00BFA53ECE6
:103390001C2B06F0FBFF95ED0C0B41EC1C0B53ECCA
:1033A000192B51EC100B06F0F1FF94ED0A1B53ECB6
:1033B000112B06F005FD53EC1C2B06F001FD41EC32
:1033C000100B8DED000B9FED4BFB53EC1F2B07F00B
:1033D000DBF80AD39FED49FB9DED000B53EC1F2B4F
:1033E00051EC100B06F096FF02D286ED00FB03E0D5
:1033F0009DED000B86ED000B9DED180B51EC1E0BA7
:1034000053EC102B07F0CEF941EC100BA11C881DDA
:10341000FDF7D6FA94ED020B53EC1D2B51EC100B7B
:1034200006F0CEFCC7E90001B0EE4A0AF0EE6A0AE7
:1034300021466846B0EE401AF0EE601AFDF72EFB0A
:1034400095ED140B53EC182B51EC100B06F09EFF6E
:103450009FED2C8B53EC182B06F098FF94ED041B7A
:1034600053EC112B06F0ACFCC4E9040153EC182B0F
:1034700051EC1B0B06F08AFF94ED061B53EC112B4D
:1034800006F09EFCC4E9060153EC182B51EC1C0B12
:1034900006F07CFF94ED081B53EC112B06F090FC1A
:1034A000C4E9080195ED080B53EC192B51EC100BF6
:1034B00006F06CFF53EC182B06F068FF94ED0A1B26
:1034C00053EC112B06F07CFCC4E90A0102B0BDEC00
:1034D000108B0DB0F0BD000000000000000059404E
:1034E0000000000000000000A80000200000000014
:1034F00000FFBF40000000000000D04000000000BE
:103500000000D0C0FCA9F1D24D62503FF7B514467F
:103510002DED0A0B0F4606462DED108B82B0B0EE56
:1035200044DAF0EE64DAB0EE42EAF0EE62EAB0EECF
:10353000418AF0EE618AB0EE40FAF0EE60FA9FED5B
:103540009ECB9FED9FABA04D9FEDA00B51EC1D0BB3
:1035500053EC102B06F01AFF53EC1E2B06F030FC38
:1035600053EC182B07F046F841EC180BB0EE480A64
:10357000F0EE680A02F0E4F8B0EE409AF0EE609ADD
:1035800095ED000B51EC190B53EC102B06F0C2FE1D
:1035900003D8B0EE4A8AF0EE6A8A95ED0E0B53EC32
:1035A000182B51EC100B06F0F1FE94ED061B53ECBA
:1035B000112B07F0F7F853EC1C2B06F0E7FE95ED06
:1035C000000B41EC1B0B53EC102B51EC190B06F0CC
:1035D000DBFF3AD295ED160B53EC182B51EC100B88
:1035E00006F0D4FE94ED041B53EC112B06F0E8FB1F
:1035F00053EC1B2B06F0E4FB41EC100B8DED000BA4
:103600009FED749B53EC192B06F0BEFF0AD39FED80
:10361000739B9DED000B53EC192B51EC100B06F036
:1036200079FE01D28DED009B95ED1A0B9DED001BEF
:1036300051EC100B53EC112B06F0A8FE53EC1F2B92
:1036400007F0B0F841EC190B03E0B0EE4A9AF0EE47
:103650006A9A95ED020B53EC192B51EC100B06F006
:1036600095FE94ED081B53EC112B07F09BF853ECDF
:103670001C2B06F08BFE95ED0A0B41EC1C0B53EC5A
:10368000192B51EC100B06F081FE94ED0A1B53EC44
:10369000112B06F095FB53EC1C2B06F091FB41EC33
:1036A000100B8DED000B9FED4BFB53EC1F2B06F029
:1036B0006BFF0AD39FED49FB9DED000B53EC1F2BD5
:1036C00051EC100B06F026FE02D286ED00FB03E063
:1036D0009DED000B86ED000B9DED180B51EC1E0BC4
:1036E00053EC102B07F05EF841EC100BA11C881D69
:1036F000FDF766F994ED020B53EC1D2B51EC100B0A
:1037000006F05EFBC7E90001B0EE4A0AF0EE6A0A75
:1037100021466846B0EE401AF0EE601AFDF7BEF999
:1037200095ED120B53EC182B51EC100B06F02EFEFE
:103730009FED2C8B53EC182B06F028FE94ED041B08
:1037400053EC112B06F03CFBC4E9040153EC182B9D
:1037500051EC1B0B06F01AFE94ED061B53EC112BDB
:1037600006F02EFBC4E9060153EC182B51EC1C0BA0
:1037700006F00CFE94ED081B53EC112B06F020FB19
:10378000C4E9080195ED060B53EC192B51EC100B15
:1037900006F0FCFD53EC182B06F0F8FD94ED0A1B27
:1037A00053EC112B06F00CFBC4E90A0102B0BDEC8E
:1037B000108B0DB0F0BD000000000000000059406B
:1037C0000000000000000000A80000200000000031
:1037D00000FFBF40000000000000D04000000000DB
:1037E0000000D0C0FCA9F1D24D62503F70B50C462C
:1037F0002DED0A8B054653EC112B51EC100B374E77
:103800009FED37BB9FED38CB06F0F4FE41EC190B72
:1038100096ED0E0B53EC192B51EC100B06F0B6FD88
:1038200094ED001B53EC112B06F0BCFF9FED301BF9
:1038300053EC112B06F0AAFD96ED160B41EC1A0B7A
:1038400053EC192B51EC100B06F0A0FD94ED021B6C
:1038500053EC112B06F0B4FA53EC1A2B06F0B0FA25
:1038600041EC180B53EC1B2B06F08EFE02D285EDBB
:1038700000BB0BE053EC1C2B51EC180B06F04AFD7F
:1038800002D285ED00CB01E085ED008B9FED1A8B18
:1038900051EC1A0B53EC182B06F078FD94ED001B3D
:1038A00053EC112B06F08CFAC4E9000196ED120BD3
:1038B00053EC192B51EC100B06F068FD53EC182B50
:1038C00006F064FD94ED021B53EC112B06F078FA20
:1038D000C4E90201BDEC0A8B70BD0000A800002005
:1038E000000000000000D040000000000000D0C038
:1038F0000000000000005940FCA9F1D24D62503F89
:103900000F4810B50D4901600321416000214FF4BB
:1039100000228160C0E903124FF440124261017637
:1039200041768176C17601774177FDF762FD002807
:1039300003D0BDE81040FDF7E1BA10BD00640040BF
:10394000080600200F4810B50D49016003214160B1
:1039500000214FF400228160C0E903124FF44012AD
:103960004261017641768176C17601774177FDF734
:1039700040FD002803D0BDE81040FDF7BFBA10BDE0
:103980000068004030060020154808B5016841F481
:10399000001101600068002200F400100090052171
:1039A0000C20FEF7CBFA0C20FEF7BAFA0022052114
:1039B0000E20FEF7C3FA0E20FEF7B2FA0022052110
:1039C0001020FEF7BBFA1020FEF7AAFA002205210C
:1039D0001120FEF7B3FABDE808401120FEF7A0BAA7
:1039E0003038024010B5124A0021124804F0D0FAD3
:1039F000114C0F4A002160602432104804F0C8FACC
:103A00000B4AA060483200210D4804F0C1FA084A70
:103A1000E0606C3200210B4804F0BAFA044A2061DD
:103A200090320021084804F0B3FA606110BD000034
:103A300054AB00088549000858000020414D00089B
:103A4000CD420008050B00086143000870B586B040
:103A500014216846FCF73CFD3548016841F08001BF
:103A60000160016801F080010591016841F00101E8
:103A70000160016801F001010591016841F0020156
:103A80000160016801F002010591016841F008013F
:103A90000160016801F008010591016841F04001F1
:103AA000016000684FF4041500F0400005904FF4E9
:103AB0004060CDE900050124694602941D48FEF7E7
:103AC00073F84FF4A870CDE900051B4E69460294C7
:103AD0003046FEF769F8202000904FF48810CDE9B9
:103AE000010469463046FEF75FF82003CDE9000582
:103AF000694602941148FEF757F8002209210A206E
:103B0000FEF71CFA0A20FEF70BFA00220921172003
:103B1000FEF714FA1720FEF703FA002209212820E5
:103B2000FEF70CFA2820FEF7FBF906B070BD000086
:103B300030380240000C02400018024000000240F1
:103B4000094810B5074901600421416040F2712124
:103B50008160FEF727F9002803D0BDE81040FDF78B
:103B6000CDB910BD00300040580600200C4810B5FB
:103B70000A490160A7214160002140F2E732C0E913
:103B80000212016180218161FEF71AFD002803D035
:103B9000BDE81040FDF7B2B910BD0000004401407F
:103BA0003C07002010B58AB0002407941C21684609
:103BB0000894FCF78DFC1B484FF08041016040F2F7
:103BC0004731C0E9011440F2CF71C0E903148461A8
:103BD000FEF7D7FE08B1FDF791F9079407A9114840
:103BE0000894FEF7A5FC08B1FDF788F96020009065
:103BF00040F2E730CDE90104002269460948049407
:103C0000FEF759FE08B1FDF779F904226946054827
:103C1000FEF751FE08B1FDF771F90248FEF7F6FD17
:103C20000AB010BD6406002010B58AB000240794C5
:103C30001C2168460894FCF74BFC184816490160A3
:103C400040F24731C0E9011440F2CF71C0E90314DA
:103C50008461FEF796FE08B1FDF750F9079407A9B5
:103C60000E480894FEF764FC08B1FDF747F96020A0
:103C7000009040F2E730CDE901040C226946074884
:103C80000494FEF718FE08B1FDF738F90348FEF773
:103C9000BDFD0AB010BD000000040040AC060020CD
:103CA00010B58AB0002407941C2168460894FCF7DC
:103CB0000FFC18481649016040F24731C0E9011471
:103CC00040F2CF71C0E903148461FEF75AFE08B1D7
:103CD000FDF714F9079407A90E480894FEF728FC8D
:103CE00008B1FDF70BF96020009040F2E730CDE914
:103CF00001040822694607480494FEF7DCFD08B178
:103D0000FDF7FCF80348FEF781FD0AB010BD000086
:103D1000000C0040F40600200C4810B50A49016070
:103D20004FF4E1314160002181600C22C160C0E9A3
:103D300004128161C161FFF761F8002803D0BDE87A
:103D40001040FDF7DBB810BD0044004084070020A0
:103D50000C4810B50A4901604FF4E131416000217F
:103D600081600C22C160C0E904128161C161FFF76A
:103D700045F8002803D0BDE81040FDF7BFB810BDDE
:103D800000480040CC070020FEE7FEE72DE9F047A1
:103D90004C4C2DED028B206901287DD1DFF8288164
:103DA0004A4E4B4D4FF0000901279FED4A8B20688A
:103DB000012817D1A068A8B995EDB60B53EC182BC4
:103DC00051EC100B06F0A6FA0CD230690188C068DD
:103DD000C0EB4030084406F072FAC8E90001C4F8AC
:103DE0000090A7606068DFF8F4A0012826D1E068A1
:103DF00020BB95EDB60B53EC182B51EC100B06F0D5
:103E0000C3FB1BD2C4F8049030690188C068C0EBC2
:103E10004030084406F053FA41EC100B8AED000BD9
:103E2000A06950B99FED2E1B51EC100B53EC112BD8
:103E300006F0B8FCC8E90001A761E76030690188B5
:103E4000C068C0EB4030084406F039FA9AED001B18
:103E500053EC112B06F098FB11D295EDB60B53ECF9
:103E6000182B51EC100B06F08FFB08D2E0680128EC
:103E700005D1B0EE480AF0EE680A85EDB60B306960
:103E80000188C068C0EB4030084406F018FA98ED8D
:103E9000001B53EC112B00E010E006F03BFA0DD2B2
:103EA00095EDB60B53EC182B51EC100B06F032FAD3
:103EB00004D2A068012801D185EDB68BBDEC028B40
:103EC000BDE8F0872814002070000020B802002010
:103ED000700F0020000000000000000078000020AB
:103EE0000000000040A20C412DE9F0412DED068BB1
:103EF0009FEDD98BDB4DDC4CD94EB5F90000B4F900
:103F000000104FF00008401A06F0D9F941EC100BF0
:103F10009FEDD6ABB0EE4A1AF0EE6A1A01F01CFC27
:103F2000B5F90200B4F90210B0EE409AF0EE609AD2
:103F3000401A06F0C4F941EC100BB0EE4A1AF0EE4C
:103F40006A1A01F009FC53EC192B51EC100B05F027
:103F500037FF41EC100B02F08BFA51EC100B06F01E
:103F60007FF9A081B5F90000B4F90010401A06F0FD
:103F7000A6F941EC190BB5F90200B4F90210401A88
:103F800006F09DF941EC100BB0EE491AF0EE691AFB
:103F900001F072FA9FEDB71B51EC100B53EC112B93
:103FA00006F0F4F99FEDB51B53EC112B05F0C4FF9F
:103FB00006F056F9E880B4F90C0006F080F941ECFF
:103FC000100B01F0BDFB96ED041B51EC100B53ECF4
:103FD000112B06F09FF902D2A4F80C8034E0B4F95A
:103FE0000C0006F06CF941EC100B01F0A9FB96ED0A
:103FF000041B51EC100B53EC112B06F0C5FA23D81F
:1040000096ED000B51EC180B53EC102B05F094FFC0
:1040100041EC190BB4F90C0006F051F941EC100B0E
:1040200001F08EFB53EC192B51EC100B06F072F9DA
:104030000AD296ED000B51EC180B53EC102B05F047
:104040007BFF06F00DF9A081B4F90C0006F037F9FA
:1040500041EC100B01F074FB96ED061B51EC100BBC
:1040600053EC112B06F090FA06D296ED060B51ECAC
:10407000100B06F0F5F8A081E888A188401A00B27C
:10408000608106F01CF941EC100B01F059FB9FED2B
:104090007D1B51EC100B53EC112B06F03BF901D2B8
:1040A000A4F80A80B4F90A0000EE100AB8EEC00ABB
:1040B000DFED769A60EE290A9FED759A80EE890A07
:1040C00010EE100A06F058FC41EC100B01F0D4FA87
:1040D000B0EE408AF0EE608AB4F90C0006F0EFF81A
:1040E00053EC182B06F052F996ED001B53EC112BF4
:1040F00006F04CF906F0B4F8E081B4F90A0000EEDD
:10410000100AB8EEC00A60EE290A80EE890A10EEA5
:10411000100A06F031FC41EC100B02F045F9B0EE4C
:10412000408AF0EE608AB4F90C0006F0C8F853EC4F
:10413000182B06F02BF996ED001B53EC112B06F013
:1041400025F906F08DF82082B5F90410B4F90400C1
:104150000A1AB52A02DDA1F5B471A980B5F90410D7
:104160000A1A12F1B50F02DA01F5B471A980B5F996
:1041700004104FF4B47291FBF2F302FB1317AF80FB
:1041800006F09DF841EC180B384606F098F853EC11
:10419000182B06F007FB41EC100B01F0D1FA9FED54
:1041A0003D1B51EC100B53EC112B06F0EDF910D226
:1041B000B4F90400B5F90410401A06F080F896ED41
:1041C000021B53EC112B06F0E1F806F049F860826F
:1041D00001E0A4F81280B4F9120006F070F841EC86
:1041E000100B01F0ADFA9FED2D1B51EC100B53ECB1
:1041F000112B06F0C9F9B4F9120007D2002802DD2C
:1042000040F6B8301BE04FF2484018E006F057F88F
:1042100041EC100B01F094FA9FED221B51EC100BB6
:1042200053EC112B06F076F80DD2B4F912000028E9
:1042300002DD4FF42F7002E003DA4FF64450608243
:1042400001E0A4F81280608AC0F100006082BDEC39
:10425000068BBDE8F0810000000000000070974070
:104260001801002030000020DE03002000000000C4
:104270000000004000000000008066400000006078
:10428000FB210940000000000000F03FDB0F494027
:10429000000034430000000000000840000000005F
:1042A0000070A7400000000000E085400549064876
:1042B00031F8012F02804B88438089888180C28039
:1042C0000381704758030020DE0300201A4F1B4C67
:1042D0002DED028B786801282AD11B4D9FED180B1C
:1042E0001A4E9FED1B8B84EDB60B28690188C068C0
:1042F000C0EB4030084405F0E2FF96ED061B53EC9E
:10430000112B06F04FFA41EC100B01F019FA53ECA7
:10431000182B51EC100B05F0FDFFE6D24FF4FA70AC
:1043200003F0FAFD04F010FE9FED0B0B84EDB60BCD
:10433000012003F0F1FDCDE7F0130020700F002005
:10434000000000000070A7C0B80200205800002044
:104350000000000000FFBF400000000000409F4040
:104360002DED0E8BDFF8ECB39FEDFB9B9FEDFCCBAF
:104370009FEDFD8BDFF8F883FE4F4FF4B476FE49D6
:10438000FE4C002001EB80031A69012A54F820201A
:1043900002D0012A14D01DE0012A11D058F8205073
:1043A00051F820C0654448F820504BF820C09FEDDC
:1043B000F40B07EB801282ED060B012244F820205B
:1043C0005BF82020322A05DA00221A6141F8202009
:1043D00044F82020401C0428D4DBEB4D95ED000B65
:1043E00001F0AEF953EC192B51EC100B06F0CCF8A0
:1043F0001BD3E64890ED000B01F0A2F9B0EE49AAFC
:10440000F0EE69AA53EC1A2B51EC100B06F0BCF835
:104410000BD3DF4890ED000B01F092F953EC1A2B0F
:1044200051EC100B06F0B0F87DD2206801287BD14A
:1044300060680128FBD1A0680128F8D1E068012854
:10444000F5D19FEDD40B00F0ABFEB0EE40DAF0EE0C
:1044500060DA01F0A9FFCE4C51EC100B94ED001B7B
:1044600053EC112B05F092FF95ED001B53EC112B33
:1044700006F0C0F841EC1A0BB0EE4D0AF0EE6D0AF2
:1044800001F0FAF894ED001B51EC100B53EC112BDA
:1044900005F07CFFDFF8F49299ED001B53EC112B33
:1044A00006F0A8F841EC100BB0EE4A1AF0EE6A1ACA
:1044B00000F0E2FF9FEDB9BB51EC100B53EC1B2B4E
:1044C00005F064FF9FEDB7AB53EC1A2B05F034FDFC
:1044D000B0EE4D0AF0EE6D0AC7E9040101F064FF89
:1044E00094ED001B51EC100B53EC112B05F04EFF1B
:1044F00095ED001B53EC112B05F062FC41EC1E0BFB
:10450000B0EE4D0AF0EE6D0A01F0B6F894ED001B26
:1045100051EC100B53EC112B05F038FF99ED001BFB
:1045200053EC112B01E0D5E0E3E006F063F841EC39
:10453000100BB0EE4E1AF0EE6E1A00F09DFF53EC29
:104540001B2B51EC100B05F021FF53EC1A2B05F03F
:10455000F3FCB0EE4D0AF0EE6D0AC7E9140101F06C
:1045600023FF94ED001B51EC100B53EC112B05F0C5
:104570000DFF95ED000B53EC102B05F021FC41ECE9
:104580001E0BB0EE4D0AF0EE6D0A01F075F894EDD9
:10459000001B51EC100B53EC112B05F0F7FE99EDBD
:1045A000001B53EC112B05F00BFC41EC100BB0EE93
:1045B0004E1AF0EE6E1A00F05FFF53EC1B2B51EC1D
:1045C000100B05F0E3FE53EC1A2B05F0B5FCB0EE32
:1045D0004D0AF0EE6D0AC7E9240101F0E5FE94ED05
:1045E000001B51EC100B53EC112B05F0CFFE95ED99
:1045F000000B53EC102B05F0FDFF41EC1E0BB0EE51
:104600004D0AF0EE6D0A01F037F894ED001B51EC05
:10461000100B53EC112B05F0B9FE99ED001B53EC78
:10462000112B05F0CDFB41EC100BB0EE4E1AF0EE65
:104630006E1A00F021FF53EC1B2B51EC100B05F010
:10464000A5FE53EC1A2B05F077FC0024B0EE4CAA23
:10465000F0EE6CAAC7E9340107EB841553EC1A2B72
:1046600095ED040B51EC100B06F09CF841EC100B8F
:1046700001F066F8B0EE48BAF0EE68BA53EC1B2BC6
:1046800051EC100B05F046FE02D395ED040B03E050
:104690009FED460B85ED040BB0EE4A1AF0EE6A1A58
:1046A00053EC112B51EC100B05F08AFB41EC100B75
:1046B00001F046F853EC1B2B51EC100B05F02AFED1
:1046C00003D29FED3C0B85ED040B641C042CC3DB73
:1046D00001200CE0206801280BD16068012808D176
:1046E000A068012805D1E068012802D100203349E3
:1046F0000860DFF8CC90DFF8CCA00025284602F057
:10470000E3FC07EB851494ED060B51EC100B05F060
:10471000A7FD90FBF6F106FB11005A3805F0CFFD1E
:1047200041EC100B01F00CF8B0EE48BAF0EE68BAAC
:1047300053EC1B2B51EC100B05F0ECFD4DD294ED1E
:10474000060B51EC100B05F08BFD90FBF6F0C0EB67
:10475000001039E01404002000000000000059405F
:104760000000000000805640000000000000F03F04
:1047700004040020E0090020580400202404002044
:104780000000000000000000380000204000002071
:1047900028000020000000000000E83F00000000AA
:1047A0000080664000000060FB210940000000001E
:1047B00000C0564000000000004056C058000020D5
:1047C00038040020F403002000EB40005B2101EBE3
:1047D000C00005F074FDC4E9060194ED060B51EC30
:1047E000100B05F03DFD90FBF6F106FB11005A3071
:1047F00005F065FD41EC100B00F0A2FF53EC1B2B04
:1048000051EC100B05F086FD13D294ED060B51EC24
:10481000100B05F025FD90FBF6F0C0EB001000EB4F
:1048200040006FF0580101EBC00005F048FDC4E9FD
:10483000060194ED060B51EC100B05F011FD90FBF9
:10484000F6F106FB1100A0F5877005F038FD41EC8C
:10485000100B00F075FF53EC1B2B51EC100B05F007
:1048600059FD13D294ED060B51EC100B05F0F8FC3A
:1048700090FBF6F0C0EB001000EB400040F20F118F
:1048800001EBC00005F01BFDC4E9060194ED060B29
:1048900051EC100B05F0E4FC90FBF6F106FB110067
:1048A00000F5877005F00BFD41EC100B00F048FFA0
:1048B00053EC1B2B51EC100B05F02CFD13D294ED97
:1048C000060B51EC100B05F0CBFC90FBF6F0C0EBA7
:1048D000001000EB40006FF4867101EBC00005F0A2
:1048E000EEFCC4E9060158F8250005F0E8FC94ED5B
:1048F000061B53EC112B05F063FA09EBC502C2E964
:10490000000121684AF8251094ED040B6D1C84ED1C
:10491000020B042DFFF6F2AE012003F0FDFA2EE5A6
:1049200010B5114C9FED0E0B104984EDB60B40F203
:104930009E70096808640E4940F2D6600968C86331
:104940000C4803F037F80C480021012201609FED6C
:104950000B0B0261416084EDB60B8160C16010BD3C
:104960000000000000409FC0700F0020AC06002037
:10497000F406002020A107002814002000000000F9
:1049800000408F402DED028B134EDFF85080144F06
:104990009FED148BD8F80050002400BF06EB840074
:1049A0000069012811D0012D0FD107EB8419B0EE59
:1049B000481A99ED060BF0EE681A53EC112B51ECE6
:1049C000100B05F0FDF9C9E90601641C042CE5DBB8
:1049D000012003F0A1FADDE758040020BC03002009
:1049E000E0090020333333333333D33F10B54FF076
:1049F000E020006905F022F8012803D0BDE810404E
:104A000004F050BD10BD000030B593B030216846B1
:104A1000FBF75EFD14210CA8FBF75AFD1E4800258C
:104A2000016841F080510160006800F080501190F1
:104A30001A48016841F4804101600068022400F4D2
:104A400080401190092000904FF4803001900120A7
:104A5000CDE905048005079008AA0420A82182E872
:104A600013000B906846FDF7ABFB08B172B6FEE78A
:104A70000CA90F2081E831004FF4A0500F904FF4A3
:104A80008050109005210CA8FDF78AFA002801D06B
:104A900072B6FEE713B030BD4038024000700040EF
:104AA0000248016841F470010160704788ED00E040
:104AB0000148FDF712BE00003C0700200148FDF749
:104AC0000CBE000094090020F0B50268294C2A4D64
:104AD0002A4E2B4F2B4B4FF0804CA04209D0604503
:104AE00007D0A84205D0B04203D0B84201D09842C6
:104AF00004D122F0700E4A6842EA0E02A0421BD096
:104B0000604519D0A84217D0B04215D0B84213D092
:104B1000984211D01C4DA8420ED01C4DA8420BD07B
:104B20001B4DA84208D01B4DA84205D01A4DA842E3
:104B300002D01A4DA84203D122F44075CA682A4314
:104B40004D6922F080022A4302608A68C2620A68C4
:104B50008262A04201D0984201D10969016301211A
:104B600041610169C90703D0016921F001010161B7
:104B7000F0BD0000000001400004004000080040BB
:104B8000000C00400004014000400140004401408E
:104B90000048014000180040001C00400020004078
:104BA00010B501F01F030121046A99408C4304628F
:104BB000016A9A401143016210BD0000F0B5036A1A
:104BC000026A22F00102026242688469124E24F0F5
:104BD00073050C682C4323F002058B682B430D4DA5
:104BE000A84201D0B04205D123F00807CB683B436F
:104BF00023F00403A84201D0B04205D14D6922F44C
:104C0000407215438A692A4342608461496841635E
:104C10000362F0BD0000014000040140F0B5026AEB
:104C2000036A23F010030362436884690D6824F467
:104C3000E64444EA05248D6822F0200242EA051287
:104C40000F4D104EA84201D0B04206D1CF6822F0DD
:104C5000800242EA071222F04002A84201D0B0428C
:104C600007D14D6923F4406343EA85038D6943EA24
:104C7000850343608461496881630262F0BD00007E
:104C80000000014000040140F0B5026A036A23F409
:104C9000807303624368C46922F4007224F07305D0
:104CA0000C68124E2C438D6842EA05220E4DA84234
:104CB00001D0B04206D1CF6822F4006242EA072256
:104CC00022F48062A84201D0B04207D14D6923F49A
:104CD000405343EA05138D6943EA05134360C461F9
:104CE0004968C1630262F0BD000001400004014058
:104CF00030B5046A026A22F4805202624268C369D3
:104D00000D6823F4E64343EA05238D6824F4005438
:104D100044EA0534084DA84202D0084DA84204D107
:104D20004D6922F4804242EA85124260C3614968BB
:104D30000164046230BD0000000001400004014035
:104D4000094C40F63E556069012804D1284604F01C
:104D500059F803F0D9F82068012801D103F092F83E
:104D6000012003F0D9F8EEE7F013002010B5806BB6
:104D70000021C185C184FDF7E1FE10BD70B5846BD3
:104D80002068406994F84110C0F3C0100025212923
:104D900004D118B1E584204600F08EF820684069FF
:104DA00094F84210C0F38010222904D118B1E5858F
:104DB000204600F05AF8606C40F010006064204615
:104DC000FDF7BCFE70BD10B50146806B096809682F
:104DD0004FF00002C9052ED4C28501680C3151E89C
:104DE000003F23F4807341E80034002CF5D10168C2
:104DF000143151E8003F23F0010341E80034002C56
:104E0000F5D10168143151E8003F23F0400341E837
:104E10000034002CF5D1202180F84210016B0129CB
:104E200009D101680C3151E8003F23F0100341E83B
:104E30000034002CF5D14263016B012902D0FEF74A
:104E4000E9F810BD818DFDF778FE10BD10B5806BBF
:104E500001214163016B012902D0FEF759F910BD10
:104E6000818D4908FDF769FE10BD01680C3151E8DC
:104E7000002F22F4907241E80023002BF5D1016845
:104E8000143151E8002F22F0010241E80023002BE9
:104E9000F5D1016B012909D101680C3151E8002FCE
:104EA00022F0100241E80023002BF5D1202180F8E8
:104EB000421000210163704701680C3151E8002F56
:104EC00022F0C00241E80023002BF5D1202180F818
:104ED0004110704708B590F84210222901D00220F5
:104EE00008BD82684FF480539A4201D1016921B113
:104EF000816A9A421BD04AB10AE00268816A52680C
:104F0000C2F308020A80816A891C08E0026972B152
:104F10000268526802F07F020A70816A491C81624D
:104F2000C18D491E0904090CC18503D01BE002682C
:104F30005268F1E70168CA6822F02002CA6001687D
:104F4000CA6822F48072CA6001684A6922F00102CC
:104F50004A61202180F8421000214163026B012A3E
:104F600003D0FEF757F8002008BD016301680C313B
:104F700051E8002F22F0100241E80023002BF5D168
:104F800001680A68D20602D50A6849680091818DD5
:104F9000FDF7D3FDE7E7000070B50446006801693E
:104FA000E26821F44051114301612169A068E2697E
:104FB00008436169114308432168CA6849F20C63D8
:104FC0009A430243CA6020684169A26921F4407192
:104FD0001143416131492068884202D030498842FA
:104FE00002D1FDF7ADF801E0FDF79AF8E269002380
:104FF000192164253226B2F5004F626828D0A0FB43
:105000000101930F9200FBF79FF90146B0FBF5F009
:105010006FF01802504301EB800006EB0010B0FB6C
:10502000F5F000F0F002B1FBF5F002EB0012B1FB7D
:10503000F5F06FF01803584301EB800006EB001009
:10504000B0FBF5F000F00F0021681044886070BDDF
:10505000A0FB010192185B41FBF776F90146B0FB1A
:10506000F5F00201B1FBF5F06FF01803584301EBC6
:10507000800006EBC000B0FBF5F000F0F80002EB9A
:105080004002B1FBF5F0584301EB800006EBC00095
:10509000B0FBF5F000F00700D6E70000001001407B
:1050A0000014014038B58162044682850020134611
:1050B0006064222284F84220E56B1B4AEA63E56BB8
:1050C0001A4A2A64E56B1A4AEA64E26B10650A46DA
:1050D0002168E06B091DFCF7D9FC20680168406875
:1050E0000090206948B120680C3050E8001F41F45E
:1050F000807140E80012002AF5D12068143050E891
:10510000001F41F0010140E80012002AF5D120689B
:10511000143050E8001F41F0400140E80012002A1E
:10512000F5D1002038BD0000C74D00084D4E0008E5
:105130007D4D00080148FDF729BD000084070020CF
:105140000148FDF723BD0000CC070020FEE703B4B3
:1051500001984100009850EAC12018BF04204A0D70
:1051600018BF40F0010040F2FF72B2EB515F08BF80
:1051700040F00200012808BF052002B0704709076F
:10518000090E002804DB00F1E02080F800147047CD
:1051900000F00F0000F1E02080F8141D70470000BF
:1051A00070B59B482DED020B2DED068B079D25F06C
:1051B0000044A04218DC9748844202DC0AD10698D9
:1051C00040B19DED060BBDEC068B02B0BDE8704012
:1051D00001F08EBD002DCCBF9FED8F0B9FED900B8E
:1051E000BDEC068B02B070BD8F48A04215DD8F4824
:1051F000A042D8BF4FF0FF3458DD9DED060B51ECB7
:10520000100BFFF7A4FF042808BF01F0A5FD9DEDDA
:10521000060BBDEC068B02B070BD9DED060B51EC8C
:10522000100B02F0D5FBCDE9060181489FED828B82
:10523000A0423CDD8248A0421FDD00249FED82ABEE
:105240009DED060B53EC1A2B51EC100B04F0B8FD3E
:105250009DED060B41EC190B53EC1A2B51EC100B86
:1052600005F094F853EC182B05F09CFA53EC192B2D
:1052700004F062FECDE9060149E09DED060B012434
:1052800053EC182B51EC100B04F09AFD9DED060B1E
:1052900041EC190B53EC182B51EC100B05F082FA72
:1052A00053EC192B04F048FECDE906012FE06848C5
:1052B000A0421FDD02249FED689B9DED060B53EC81
:1052C000192B51EC100B05F061F853EC182B04F07E
:1052D00077FD9DED060B41EC180B53EC192B51ECAF
:1052E000100B05F05FFA53EC182B04F025FECDE906
:1052F00006010CE09DED060B032453EC102B9FEDF3
:10530000580B51EC100B04F017FECDE906019DED92
:10531000060B53EC102B51EC100B05F037F841EC59
:10532000180B53EC182B05F031F841EC190B4E48D3
:105330000621B0EE490AF0EE690A784401F0ACFBB0
:1053400053EC182B51EC100B05F020F841EC180B26
:105350004648B0EE490AF0EE690A0521784401F0AA
:105360009BFB53EC192B51EC100B05F00FF841ECA3
:10537000100B51EC180B53EC102B002C0EDA04F030
:105380001FFD9DED061B53EC112B04F0FFFF9DED5F
:10539000061B53EC112B05F02DF935E004F010FD40
:1053A0009DED061B53EC112B04F0F0FF41EC100BAC
:1053B0002F48784400EBC40090ED001B51EC100B1B
:1053C00053EC112B05F0EEF99DED061B53EC112B60
:1053D00005F0E8F941EC100B2648784400EBC400D6
:1053E00090ED001B51EC100B53EC112B05F002F962
:1053F00041EC100B002DA2BFBDEC068B02B070BDBE
:1054000051EC100B04F0D0FC41EC100B01E7000054
:10541000000010440000F07F182D4454FB21F93F98
:10542000182D4454FB21F9BF0000DC3F0000203E52
:105430000000F33F00000000000000000000F03F0B
:105440000000E63F000000000000000000000040F7
:105450000080034000000000000000000000F83F52
:10546000000000000000F0BF525900000859000081
:10547000925800004A58000070B56F4E2DED040B95
:105480002DED048B82B0DDF824C0DDE907235C42FA
:105490002CF000411C4341EAD474069D22F00040E8
:1054A000B44205D86C422C4340EAD474B4420BD9C0
:1054B0009DED081B9DED060B02B0BDEC048B04B006
:1054C000BDE8704001F01EBCACF14054A4F17F6413
:1054D0001C430BD0022404EAAC7444EAD2740543A2
:1054E0009FED578B9FED582B07D015E09DED060BD8
:1054F00051EC100B01F0E0FD42E0002C11BF012C3B
:105500009DED060B02B0BDEC048B04BF04B070BD72
:10551000022C38D0032C3BD00B439FED4D1B9FED4D
:105520004E0B0AD0B14218D1B04209D121F08041CE
:1055300020F08040099107900FE0002A15DA10E072
:10554000474B7B44002C08BF93ED000B0DD0012C82
:1055500010D0022C17D0032C1AD0B0421DD1002A33
:1055600003DAB0EE410AF0EE610A02B0BDEC048B42
:1055700004B070BD93ED000B51EC100B04F014FC63
:1055800041EC100BF1E7B0EE480AF0EE680AECE7E8
:10559000B0EE420AF0EE620AE7E7401A00159FED0E
:1055A000329B3C28C8BF8DED000B17DCBCF1000F0F
:1055B000BCBF10F13C0F8DED009B0FDB9DED080B88
:1055C00053EC102B9DED060B51EC100B04F0B4FCCA
:1055D00002F0FEF901F070FDCDE90001B4B1012C3B
:1055E00010D0022C9FED220B53EC102B9DED000BE5
:1055F00051EC100B19D005F0D5F853EC182B05F031
:10560000D1F8BDE7019880F0004001909DED000BBE
:1056100053EC192B51EC100B04F0E6FD04BF0220F3
:10562000FAF785FF9DED000B9FE705F0BBF853EC03
:10563000182B04F0DFFFA3E70000F07F000000005C
:10564000182D4454FB210940182D4454FB2109C056
:10565000182D4454FB21F9BF182D4454FB21F93F68
:1056600032580000000000000000000000000000B0
:10567000075C143326A6A13C10B52F499FED2C1BC7
:105680002DED020B84B0059820F000408842D8BF71
:105690009DED040B2DDD2949884209D1049840B9BC
:1056A0004FF00100FAF743FF01F036FB06B010BDE2
:1056B00005DB9DED040B01F01BFB06B010BD684639
:1056C0009DED040B00F014FF10F0030004BF9DEDEE
:1056D000021B9DED000B0CD001280ED09DED021B8E
:1056E0009DED000B022817D0012001F051FA06B001
:1056F00010BD01F019F906B010BD9DED021B9DED26
:10570000000B012001F044FA51EC100B04F04CFBAB
:1057100006B041EC100B10BD01F006F951EC100B76
:1057200004F042FB06B041EC100B10BD000000007D
:105730000000000000000000FB21E93F0000F07FB6
:105740002DED020B019820F0004001909DED000B23
:1057500002B07047000000002DE9F04D2DED040B64
:105760002DED0E8B96B0DDE92550279CDDF890A03D
:1057700025F0004624F00048BAF1000F14BF0121C3
:10578000002101EB4502FC4953184A1093422AD3E9
:10579000002814BF0123002303EB44030B44F74903
:1057A0008B4220D358EA00019FEDF59B76D0DFF8BD
:1057B000D8B35D4503D1BAF1000F05D188E0BAF145
:1057C000000F08BF002100D0012101EB450111F5B8
:1057D000001F08D8002814BF0121002101EB44015B
:1057E00011F5001F0BD99DED261B9DED240B16B066
:1057F000BDEC0E8B04B0BDE8F04D01F083BA00277C
:10580000002DBCBFE149884521DAE1498845A8BFA0
:1058100002271CDAC3451ADCDE4901EB28511429A2
:1058200008DDC1F1340220FA02F101FA02F28242EB
:105830000DD108E058B9C1F1140228FA02F101FAB9
:1058400002F2424503D101F00101C1F1020756EA1B
:105850000A0124D1002C22DA002D18BF022F01D01A
:10586000012F0AD00220FAF762FE16B0BDEC0E8BB3
:1058700004B0BDE8F04D01F023BA0220FAF757FE5C
:1058800001F01EFA51EC100B04F08EFA41EC100BF3
:1058900016B0BDEC0E8B04B0BDE8F08D18E09FEDA6
:1058A000BEAB9FEDBF8B002871D1B848804522D197
:1058B00005F1804010F5801008BFBAF1000F07D045
:1058C000B3450ADC002CA8BF9DED260BE0DA0DE005
:1058D000B0EE490AF0EE690ADAE7002C06DA9DED2F
:1058E000260B51EC100B04F05FFA6FE0AE487844E1
:1058F00090ED000BCCE7D8454DD1002C48DA2EB105
:1059000086423AD1BAF1000F42D126E0BAF1000F37
:1059100013D00220FAF70BFE01F00EFA8DED020B08
:105920009DED240B8DED000B10EE900A039961F3B1
:105930001E0003909DED020BAAE78DED02AB9DEDDD
:10594000240B1AEE901A10EE900A8DED000B61F305
:105950001E0003909DED020B9AE78DED028B9DEDED
:10596000240B18EE901A10EE900A8DED000B61F3E7
:105970001E0003909DED020B8AE709DA9DED240BD2
:1059800051EC190B53EC102B04F0D6FA1EE020E07A
:105990009DED240B7CE786421BDAB4F1804F0DD0DD
:1059A000A4F10050B0F1FF5013D1002D11DB9DED9B
:1059B000240B51EC100B03F08FFA07E09DED240B44
:1059C00053EC102B51EC100B00F0C2BC41EC100B4F
:1059D0005EE79DED240B51EC100B01F0F9FFBAF1DD
:1059E000000FCDE90E0142D19FED710B46B3A6F138
:1059F000E040B0F17F600CD05E4538D1002D00DA78
:105A0000A7B3022F0CBF01204FF0FF3004F057FC6A
:105A1000DCE7002D01DD002C0DDA002D01DD002C6E
:105A20001FDB002D16DA002C14DB012F08BF9FEDC1
:105A3000620B3FF42DAFB0EE4A0AF0EE6A0A27E798
:105A4000022F18BF002D0CD0012F0AD1002DFFF618
:105A50001FAF06E0002DB8BF002C08DA012F3FF47D
:105A600017AFB0EE480AF0EE680A11E71BE001201C
:105A700000EBE57050EA070115D0791EB0EE498AB7
:105A8000F0EE698A084308BF9FED4D8B4E48002514
:105A9000804570DD4D494E48884514DDB0420DDB30
:105AA000002C19DB2FE00120FAF741FD16B0BDEC08
:105AB0000E8B04B0BDE8F04D01F02EB9B34502DC09
:105AC000002C09DC1FE0864202DA002C1BDA03E01E
:105AD0005E452BDD002C16DD0220FAF728FD01F0D3
